{
  "_format": "hh-sol-artifact-1",
  "contractName": "CryptoBirdsContract",
  "sourceName": "contracts/CryptoBirdsContract.sol",
  "abi": [
    {
      "inputs": [],
      "stateMutability": "nonpayable",
      "type": "constructor"
    },
    {
      "anonymous": false,
      "inputs": [
        {
          "indexed": true,
          "internalType": "address",
          "name": "owner",
          "type": "address"
        },
        {
          "indexed": true,
          "internalType": "address",
          "name": "approved",
          "type": "address"
        },
        {
          "indexed": true,
          "internalType": "uint256",
          "name": "tokenId",
          "type": "uint256"
        }
      ],
      "name": "Approval",
      "type": "event"
    },
    {
      "anonymous": false,
      "inputs": [
        {
          "indexed": true,
          "internalType": "address",
          "name": "owner",
          "type": "address"
        },
        {
          "indexed": true,
          "internalType": "address",
          "name": "operator",
          "type": "address"
        },
        {
          "indexed": false,
          "internalType": "bool",
          "name": "approved",
          "type": "bool"
        }
      ],
      "name": "ApprovalForAll",
      "type": "event"
    },
    {
      "anonymous": false,
      "inputs": [
        {
          "indexed": true,
          "internalType": "address",
          "name": "from",
          "type": "address"
        },
        {
          "indexed": true,
          "internalType": "address",
          "name": "to",
          "type": "address"
        },
        {
          "indexed": true,
          "internalType": "uint256",
          "name": "tokenId",
          "type": "uint256"
        }
      ],
      "name": "Transfer",
      "type": "event"
    },
    {
      "inputs": [
        {
          "internalType": "address",
          "name": "to",
          "type": "address"
        },
        {
          "internalType": "uint256",
          "name": "tokenId",
          "type": "uint256"
        }
      ],
      "name": "approve",
      "outputs": [],
      "stateMutability": "nonpayable",
      "type": "function"
    },
    {
      "inputs": [
        {
          "internalType": "address",
          "name": "owner_",
          "type": "address"
        }
      ],
      "name": "balanceOf",
      "outputs": [
        {
          "internalType": "uint256",
          "name": "",
          "type": "uint256"
        }
      ],
      "stateMutability": "view",
      "type": "function"
    },
    {
      "inputs": [
        {
          "internalType": "uint256",
          "name": "tokenId",
          "type": "uint256"
        }
      ],
      "name": "burn",
      "outputs": [],
      "stateMutability": "nonpayable",
      "type": "function"
    },
    {
      "inputs": [
        {
          "internalType": "uint256",
          "name": "tokenId",
          "type": "uint256"
        }
      ],
      "name": "getApproved",
      "outputs": [
        {
          "internalType": "address",
          "name": "",
          "type": "address"
        }
      ],
      "stateMutability": "view",
      "type": "function"
    },
    {
      "inputs": [
        {
          "internalType": "address",
          "name": "owner_",
          "type": "address"
        },
        {
          "internalType": "address",
          "name": "operator",
          "type": "address"
        }
      ],
      "name": "isApprovedForAll",
      "outputs": [
        {
          "internalType": "bool",
          "name": "",
          "type": "bool"
        }
      ],
      "stateMutability": "view",
      "type": "function"
    },
    {
      "inputs": [],
      "name": "name",
      "outputs": [
        {
          "internalType": "string",
          "name": "",
          "type": "string"
        }
      ],
      "stateMutability": "view",
      "type": "function"
    },
    {
      "inputs": [],
      "name": "nextTokenId",
      "outputs": [
        {
          "internalType": "uint256",
          "name": "",
          "type": "uint256"
        }
      ],
      "stateMutability": "view",
      "type": "function"
    },
    {
      "inputs": [],
      "name": "owner",
      "outputs": [
        {
          "internalType": "address",
          "name": "",
          "type": "address"
        }
      ],
      "stateMutability": "view",
      "type": "function"
    },
    {
      "inputs": [
        {
          "internalType": "uint256",
          "name": "tokenId",
          "type": "uint256"
        }
      ],
      "name": "ownerOf",
      "outputs": [
        {
          "internalType": "address",
          "name": "",
          "type": "address"
        }
      ],
      "stateMutability": "view",
      "type": "function"
    },
    {
      "inputs": [
        {
          "internalType": "address",
          "name": "to",
          "type": "address"
        },
        {
          "internalType": "string",
          "name": "fullTokenURI",
          "type": "string"
        }
      ],
      "name": "safeMint",
      "outputs": [
        {
          "internalType": "uint256",
          "name": "tokenId",
          "type": "uint256"
        }
      ],
      "stateMutability": "nonpayable",
      "type": "function"
    },
    {
      "inputs": [
        {
          "internalType": "address",
          "name": "from",
          "type": "address"
        },
        {
          "internalType": "address",
          "name": "to",
          "type": "address"
        },
        {
          "internalType": "uint256",
          "name": "tokenId",
          "type": "uint256"
        }
      ],
      "name": "safeTransferFrom",
      "outputs": [],
      "stateMutability": "nonpayable",
      "type": "function"
    },
    {
      "inputs": [
        {
          "internalType": "address",
          "name": "from",
          "type": "address"
        },
        {
          "internalType": "address",
          "name": "to",
          "type": "address"
        },
        {
          "internalType": "uint256",
          "name": "tokenId",
          "type": "uint256"
        },
        {
          "internalType": "bytes",
          "name": "data",
          "type": "bytes"
        }
      ],
      "name": "safeTransferFrom",
      "outputs": [],
      "stateMutability": "nonpayable",
      "type": "function"
    },
    {
      "inputs": [
        {
          "internalType": "address",
          "name": "operator",
          "type": "address"
        },
        {
          "internalType": "bool",
          "name": "approved",
          "type": "bool"
        }
      ],
      "name": "setApprovalForAll",
      "outputs": [],
      "stateMutability": "nonpayable",
      "type": "function"
    },
    {
      "inputs": [
        {
          "internalType": "string",
          "name": "newBase",
          "type": "string"
        }
      ],
      "name": "setBaseURI",
      "outputs": [],
      "stateMutability": "nonpayable",
      "type": "function"
    },
    {
      "inputs": [
        {
          "internalType": "bytes4",
          "name": "interfaceId",
          "type": "bytes4"
        }
      ],
      "name": "supportsInterface",
      "outputs": [
        {
          "internalType": "bool",
          "name": "",
          "type": "bool"
        }
      ],
      "stateMutability": "pure",
      "type": "function"
    },
    {
      "inputs": [],
      "name": "symbol",
      "outputs": [
        {
          "internalType": "string",
          "name": "",
          "type": "string"
        }
      ],
      "stateMutability": "view",
      "type": "function"
    },
    {
      "inputs": [
        {
          "internalType": "uint256",
          "name": "tokenId",
          "type": "uint256"
        }
      ],
      "name": "tokenURI",
      "outputs": [
        {
          "internalType": "string",
          "name": "",
          "type": "string"
        }
      ],
      "stateMutability": "view",
      "type": "function"
    },
    {
      "inputs": [],
      "name": "totalSupply",
      "outputs": [
        {
          "internalType": "uint256",
          "name": "",
          "type": "uint256"
        }
      ],
      "stateMutability": "view",
      "type": "function"
    },
    {
      "inputs": [
        {
          "internalType": "address",
          "name": "newOwner",
          "type": "address"
        }
      ],
      "name": "transferContractOwnership",
      "outputs": [],
      "stateMutability": "nonpayable",
      "type": "function"
    },
    {
      "inputs": [
        {
          "internalType": "address",
          "name": "from",
          "type": "address"
        },
        {
          "internalType": "address",
          "name": "to",
          "type": "address"
        },
        {
          "internalType": "uint256",
          "name": "tokenId",
          "type": "uint256"
        }
      ],
      "name": "transferFrom",
      "outputs": [],
      "stateMutability": "nonpayable",
      "type": "function"
    }
  ],
  "bytecode": "0x6080604052600160095534801561001557600080fd5b50336000806101000a81548173ffffffffffffffffffffffffffffffffffffffff021916908373ffffffffffffffffffffffffffffffffffffffff1602179055506040518060400160405280600b81526020017f43727970746f42697264730000000000000000000000000000000000000000008152506001908161009a9190610354565b506040518060400160405280600581526020017f4342495244000000000000000000000000000000000000000000000000000000815250600290816100df9190610354565b5060405180602001604052806000815250600390816100fe9190610354565b50610426565b600081519050919050565b7f4e487b7100000000000000000000000000000000000000000000000000000000600052604160045260246000fd5b7f4e487b7100000000000000000000000000000000000000000000000000000000600052602260045260246000fd5b6000600282049050600182168061018557607f821691505b6020821081036101985761019761013e565b5b50919050565b60008190508160005260206000209050919050565b60006020601f8301049050919050565b600082821b905092915050565b6000600883026102007fffffffffffffffffffffffffffffffffffffffffffffffffffffffffffffffff826101c3565b61020a86836101c3565b95508019841693508086168417925050509392505050565b6000819050919050565b6000819050919050565b600061025161024c61024784610222565b61022c565b610222565b9050919050565b6000819050919050565b61026b83610236565b61027f61027782610258565b8484546101d0565b825550505050565b600090565b610294610287565b61029f818484610262565b505050565b5b818110156102c3576102b860008261028c565b6001810190506102a5565b5050565b601f821115610308576102d98161019e565b6102e2846101b3565b810160208510156102f1578190505b6103056102fd856101b3565b8301826102a4565b50505b505050565b600082821c905092915050565b600061032b6000198460080261030d565b1980831691505092915050565b6000610344838361031a565b9150826002028217905092915050565b61035d82610104565b67ffffffffffffffff8111156103765761037561010f565b5b610380825461016d565b61038b8282856102c7565b600060209050601f8311600181146103be57600084156103ac578287015190505b6103b68582610338565b86555061041e565b601f1984166103cc8661019e565b60005b828110156103f4578489015182556001820191506020850194506020810190506103cf565b86831015610411578489015161040d601f89168261031a565b8355505b6001600288020188555050505b505050505050565b612d21806104356000396000f3fe608060405234801561001057600080fd5b506004361061012c5760003560e01c806370a08231116100ad578063a843c51f11610071578063a843c51f1461032f578063b88d4fde1461034b578063c87b56dd14610367578063d204c45e14610397578063e985e9c5146103c75761012c565b806370a082311461028957806375794a3c146102b95780638da5cb5b146102d757806395d89b41146102f5578063a22cb465146103135761012c565b806323b872dd116100f457806323b872dd146101e957806342842e0e1461020557806342966c681461022157806355f804b31461023d5780636352211e146102595761012c565b806301ffc9a71461013157806306fdde0314610161578063081812fc1461017f578063095ea7b3146101af57806318160ddd146101cb575b600080fd5b61014b60048036038101906101469190611b04565b6103f7565b6040516101589190611b4c565b60405180910390f35b6101696104e6565b6040516101769190611bf7565b60405180910390f35b61019960048036038101906101949190611c4f565b610578565b6040516101a69190611cbd565b60405180910390f35b6101c960048036038101906101c49190611d04565b6105fd565b005b6101d3610706565b6040516101e09190611d53565b60405180910390f35b61020360048036038101906101fe9190611d6e565b610710565b005b61021f600480360381019061021a9190611d6e565b6109b4565b005b61023b60048036038101906102369190611c4f565b6109d4565b005b61025760048036038101906102529190611ef6565b610b67565b005b610273600480360381019061026e9190611c4f565b610c08565b6040516102809190611cbd565b60405180910390f35b6102a3600480360381019061029e9190611f3f565b610cb9565b6040516102b09190611d53565b60405180910390f35b6102c1610d70565b6040516102ce9190611d53565b60405180910390f35b6102df610d7a565b6040516102ec9190611cbd565b60405180910390f35b6102fd610d9e565b60405161030a9190611bf7565b60405180910390f35b61032d60048036038101906103289190611f98565b610e30565b005b61034960048036038101906103449190611f3f565b610f9b565b005b61036560048036038101906103609190612079565b6110db565b005b610381600480360381019061037c9190611c4f565b611138565b60405161038e9190611bf7565b60405180910390f35b6103b160048036038101906103ac91906120fc565b611268565b6040516103be9190611d53565b60405180910390f35b6103e160048036038101906103dc9190612158565b611582565b6040516103ee9190611b4c565b60405180910390f35b60006301ffc9a760e01b7bffffffffffffffffffffffffffffffffffffffffffffffffffffffff1916827bffffffffffffffffffffffffffffffffffffffffffffffffffffffff1916148061049057506380ac58cd60e01b7bffffffffffffffffffffffffffffffffffffffffffffffffffffffff1916827bffffffffffffffffffffffffffffffffffffffffffffffffffffffff1916145b806104df5750635b5e139f60e01b7bffffffffffffffffffffffffffffffffffffffffffffffffffffffff1916827bffffffffffffffffffffffffffffffffffffffffffffffffffffffff1916145b9050919050565b6060600180546104f5906121c7565b80601f0160208091040260200160405190810160405280929190818152602001828054610521906121c7565b801561056e5780601f106105435761010080835404028352916020019161056e565b820191906000526020600020905b81548152906001019060200180831161055157829003601f168201915b5050505050905090565b600061058382611616565b6105c2576040517f08c379a00000000000000000000000000000000000000000000000000000000081526004016105b990612244565b60405180910390fd5b6006600083815260200190815260200160002060009054906101000a900473ffffffffffffffffffffffffffffffffffffffff169050919050565b600061060882610c08565b90508073ffffffffffffffffffffffffffffffffffffffff168373ffffffffffffffffffffffffffffffffffffffff1603610678576040517f08c379a000000000000000000000000000000000000000000000000000000000815260040161066f906122b0565b60405180910390fd5b8073ffffffffffffffffffffffffffffffffffffffff163373ffffffffffffffffffffffffffffffffffffffff1614806106b857506106b78133611582565b5b6106f7576040517f08c379a00000000000000000000000000000000000000000000000000000000081526004016106ee9061231c565b60405180910390fd5b6107018383611682565b505050565b6000600a54905090565b61071a338261173b565b610759576040517f08c379a000000000000000000000000000000000000000000000000000000000815260040161075090612388565b60405180910390fd5b8273ffffffffffffffffffffffffffffffffffffffff1661077982610c08565b73ffffffffffffffffffffffffffffffffffffffff16146107cf576040517f08c379a00000000000000000000000000000000000000000000000000000000081526004016107c6906123f4565b60405180910390fd5b600073ffffffffffffffffffffffffffffffffffffffff168273ffffffffffffffffffffffffffffffffffffffff160361083e576040517f08c379a000000000000000000000000000000000000000000000000000000000815260040161083590612460565b60405180910390fd5b6108498383836117d0565b610854600082611682565b6001600560008573ffffffffffffffffffffffffffffffffffffffff1673ffffffffffffffffffffffffffffffffffffffff16815260200190815260200160002060008282546108a491906124af565b925050819055506001600560008473ffffffffffffffffffffffffffffffffffffffff1673ffffffffffffffffffffffffffffffffffffffff16815260200190815260200160002060008282546108fb91906124e3565b92505081905550816004600083815260200190815260200160002060006101000a81548173ffffffffffffffffffffffffffffffffffffffff021916908373ffffffffffffffffffffffffffffffffffffffff160217905550808273ffffffffffffffffffffffffffffffffffffffff168473ffffffffffffffffffffffffffffffffffffffff167fddf252ad1be2c89b69c2b068fc378daa952ba7f163c4a11628f55a4df523b3ef60405160405180910390a4505050565b6109cf838383604051806020016040528060008152506110db565b505050565b6109de338261173b565b610a1d576040517f08c379a0000000000000000000000000000000000000000000000000000000008152600401610a1490612388565b60405180910390fd5b6000610a2882610c08565b9050610a36816000846117d0565b610a41600083611682565b6001600560008373ffffffffffffffffffffffffffffffffffffffff1673ffffffffffffffffffffffffffffffffffffffff1681526020019081526020016000206000828254610a9191906124af565b925050819055506004600083815260200190815260200160002060006101000a81549073ffffffffffffffffffffffffffffffffffffffff0219169055600860008381526020019081526020016000206000610aed9190611a3b565b6001600a6000828254610b0091906124af565b9250508190555081600073ffffffffffffffffffffffffffffffffffffffff168273ffffffffffffffffffffffffffffffffffffffff167fddf252ad1be2c89b69c2b068fc378daa952ba7f163c4a11628f55a4df523b3ef60405160405180910390a45050565b60008054906101000a900473ffffffffffffffffffffffffffffffffffffffff1673ffffffffffffffffffffffffffffffffffffffff163373ffffffffffffffffffffffffffffffffffffffff1614610bf5576040517f08c379a0000000000000000000000000000000000000000000000000000000008152600401610bec90612563565b60405180910390fd5b8060039081610c04919061272f565b5050565b6000806004600084815260200190815260200160002060009054906101000a900473ffffffffffffffffffffffffffffffffffffffff169050600073ffffffffffffffffffffffffffffffffffffffff168173ffffffffffffffffffffffffffffffffffffffff1603610cb0576040517f08c379a0000000000000000000000000000000000000000000000000000000008152600401610ca790612244565b60405180910390fd5b80915050919050565b60008073ffffffffffffffffffffffffffffffffffffffff168273ffffffffffffffffffffffffffffffffffffffff1603610d29576040517f08c379a0000000000000000000000000000000000000000000000000000000008152600401610d209061284d565b60405180910390fd5b600560008373ffffffffffffffffffffffffffffffffffffffff1673ffffffffffffffffffffffffffffffffffffffff168152602001908152602001600020549050919050565b6000600954905090565b60008054906101000a900473ffffffffffffffffffffffffffffffffffffffff1681565b606060028054610dad906121c7565b80601f0160208091040260200160405190810160405280929190818152602001828054610dd9906121c7565b8015610e265780601f10610dfb57610100808354040283529160200191610e26565b820191906000526020600020905b815481529060010190602001808311610e0957829003601f168201915b5050505050905090565b3373ffffffffffffffffffffffffffffffffffffffff168273ffffffffffffffffffffffffffffffffffffffff1603610e9e576040517f08c379a0000000000000000000000000000000000000000000000000000000008152600401610e95906128b9565b60405180910390fd5b80600760003373ffffffffffffffffffffffffffffffffffffffff1673ffffffffffffffffffffffffffffffffffffffff16815260200190815260200160002060008473ffffffffffffffffffffffffffffffffffffffff1673ffffffffffffffffffffffffffffffffffffffff16815260200190815260200160002060006101000a81548160ff0219169083151502179055508173ffffffffffffffffffffffffffffffffffffffff163373ffffffffffffffffffffffffffffffffffffffff167f17307eab39ab6107e8899845ad3d59bd9653f200f220920489ca2b5937696c3183604051610f8f9190611b4c565b60405180910390a35050565b60008054906101000a900473ffffffffffffffffffffffffffffffffffffffff1673ffffffffffffffffffffffffffffffffffffffff163373ffffffffffffffffffffffffffffffffffffffff1614611029576040517f08c379a000000000000000000000000000000000000000000000000000000000815260040161102090612563565b60405180910390fd5b600073ffffffffffffffffffffffffffffffffffffffff168173ffffffffffffffffffffffffffffffffffffffff1603611098576040517f08c379a000000000000000000000000000000000000000000000000000000000815260040161108f9061284d565b60405180910390fd5b806000806101000a81548173ffffffffffffffffffffffffffffffffffffffff021916908373ffffffffffffffffffffffffffffffffffffffff16021790555050565b6110e6848484610710565b6110f333858585856117d5565b611132576040517f08c379a000000000000000000000000000000000000000000000000000000000815260040161112990612925565b60405180910390fd5b50505050565b606061114382611616565b611182576040517f08c379a000000000000000000000000000000000000000000000000000000000815260040161117990612244565b60405180910390fd5b60006008600084815260200190815260200160002080546111a2906121c7565b80601f01602080910402602001604051908101604052809291908181526020018280546111ce906121c7565b801561121b5780601f106111f05761010080835404028352916020019161121b565b820191906000526020600020905b8154815290600101906020018083116111fe57829003601f168201915b5050505050905060008151146112345780915050611263565b600361123f846118db565b604051602001611250929190612a04565b6040516020818303038152906040529150505b919050565b60008060009054906101000a900473ffffffffffffffffffffffffffffffffffffffff1673ffffffffffffffffffffffffffffffffffffffff163373ffffffffffffffffffffffffffffffffffffffff16146112f9576040517f08c379a00000000000000000000000000000000000000000000000000000000081526004016112f090612563565b60405180910390fd5b600073ffffffffffffffffffffffffffffffffffffffff168373ffffffffffffffffffffffffffffffffffffffff1603611368576040517f08c379a000000000000000000000000000000000000000000000000000000000815260040161135f90612a74565b60405180910390fd5b6009600081548092919061137b90612a94565b91905055905061138a81611616565b156113ca576040517f08c379a00000000000000000000000000000000000000000000000000000000081526004016113c190612b28565b60405180910390fd5b6113d6600084836117d0565b826004600083815260200190815260200160002060006101000a81548173ffffffffffffffffffffffffffffffffffffffff021916908373ffffffffffffffffffffffffffffffffffffffff1602179055506001600560008573ffffffffffffffffffffffffffffffffffffffff1673ffffffffffffffffffffffffffffffffffffffff168152602001908152602001600020600082825461147891906124e3565b925050819055506001600a600082825461149291906124e3565b9250508190555060008251146114c457816008600083815260200190815260200160002090816114c2919061272f565b505b808373ffffffffffffffffffffffffffffffffffffffff16600073ffffffffffffffffffffffffffffffffffffffff167fddf252ad1be2c89b69c2b068fc378daa952ba7f163c4a11628f55a4df523b3ef60405160405180910390a461153d3360008584604051806020016040528060008152506117d5565b61157c576040517f08c379a000000000000000000000000000000000000000000000000000000000815260040161157390612925565b60405180910390fd5b92915050565b6000600760008473ffffffffffffffffffffffffffffffffffffffff1673ffffffffffffffffffffffffffffffffffffffff16815260200190815260200160002060008373ffffffffffffffffffffffffffffffffffffffff1673ffffffffffffffffffffffffffffffffffffffff16815260200190815260200160002060009054906101000a900460ff16905092915050565b60008073ffffffffffffffffffffffffffffffffffffffff166004600084815260200190815260200160002060009054906101000a900473ffffffffffffffffffffffffffffffffffffffff1673ffffffffffffffffffffffffffffffffffffffff1614159050919050565b816006600083815260200190815260200160002060006101000a81548173ffffffffffffffffffffffffffffffffffffffff021916908373ffffffffffffffffffffffffffffffffffffffff160217905550808273ffffffffffffffffffffffffffffffffffffffff166116f583610c08565b73ffffffffffffffffffffffffffffffffffffffff167f8c5be1e5ebec7d5bd14f71427d1e84f3dd0314c0f7b2291e5b200ac8c7c3b92560405160405180910390a45050565b60008061174783610c08565b90508073ffffffffffffffffffffffffffffffffffffffff168473ffffffffffffffffffffffffffffffffffffffff1614806117b657508373ffffffffffffffffffffffffffffffffffffffff1661179e84610578565b73ffffffffffffffffffffffffffffffffffffffff16145b806117c757506117c68185611582565b5b91505092915050565b505050565b6000808473ffffffffffffffffffffffffffffffffffffffff163b036117fe57600190506118d2565b8373ffffffffffffffffffffffffffffffffffffffff1663150b7a02878786866040518563ffffffff1660e01b815260040161183d9493929190612b9d565b6020604051808303816000875af192505050801561187957506040513d601f19601f820116820180604052508101906118769190612bfe565b60015b61188657600090506118d2565b63150b7a0260e01b7bffffffffffffffffffffffffffffffffffffffffffffffffffffffff1916817bffffffffffffffffffffffffffffffffffffffffffffffffffffffff1916149150505b95945050505050565b606060008203611922576040518060400160405280600181526020017f30000000000000000000000000000000000000000000000000000000000000008152509050611a36565b600082905060005b6000821461195457808061193d90612a94565b915050600a8261194d9190612c5a565b915061192a565b60008167ffffffffffffffff8111156119705761196f611dcb565b5b6040519080825280601f01601f1916602001820160405280156119a25781602001600182028036833780820191505090505b5090505b60008514611a2f576001826119bb91906124af565b9150600a856119ca9190612c8b565b60306119d691906124e3565b60f81b8183815181106119ec576119eb612cbc565b5b60200101907effffffffffffffffffffffffffffffffffffffffffffffffffffffffffffff1916908160001a905350600a85611a289190612c5a565b94506119a6565b8093505050505b919050565b508054611a47906121c7565b6000825580601f10611a595750611a78565b601f016020900490600052602060002090810190611a779190611a7b565b5b50565b5b80821115611a94576000816000905550600101611a7c565b5090565b6000604051905090565b600080fd5b600080fd5b60007fffffffff0000000000000000000000000000000000000000000000000000000082169050919050565b611ae181611aac565b8114611aec57600080fd5b50565b600081359050611afe81611ad8565b92915050565b600060208284031215611b1a57611b19611aa2565b5b6000611b2884828501611aef565b91505092915050565b60008115159050919050565b611b4681611b31565b82525050565b6000602082019050611b616000830184611b3d565b92915050565b600081519050919050565b600082825260208201905092915050565b60005b83811015611ba1578082015181840152602081019050611b86565b60008484015250505050565b6000601f19601f8301169050919050565b6000611bc982611b67565b611bd38185611b72565b9350611be3818560208601611b83565b611bec81611bad565b840191505092915050565b60006020820190508181036000830152611c118184611bbe565b905092915050565b6000819050919050565b611c2c81611c19565b8114611c3757600080fd5b50565b600081359050611c4981611c23565b92915050565b600060208284031215611c6557611c64611aa2565b5b6000611c7384828501611c3a565b91505092915050565b600073ffffffffffffffffffffffffffffffffffffffff82169050919050565b6000611ca782611c7c565b9050919050565b611cb781611c9c565b82525050565b6000602082019050611cd26000830184611cae565b92915050565b611ce181611c9c565b8114611cec57600080fd5b50565b600081359050611cfe81611cd8565b92915050565b60008060408385031215611d1b57611d1a611aa2565b5b6000611d2985828601611cef565b9250506020611d3a85828601611c3a565b9150509250929050565b611d4d81611c19565b82525050565b6000602082019050611d686000830184611d44565b92915050565b600080600060608486031215611d8757611d86611aa2565b5b6000611d9586828701611cef565b9350506020611da686828701611cef565b9250506040611db786828701611c3a565b9150509250925092565b600080fd5b600080fd5b7f4e487b7100000000000000000000000000000000000000000000000000000000600052604160045260246000fd5b611e0382611bad565b810181811067ffffffffffffffff82111715611e2257611e21611dcb565b5b80604052505050565b6000611e35611a98565b9050611e418282611dfa565b919050565b600067ffffffffffffffff821115611e6157611e60611dcb565b5b611e6a82611bad565b9050602081019050919050565b82818337600083830152505050565b6000611e99611e9484611e46565b611e2b565b905082815260208101848484011115611eb557611eb4611dc6565b5b611ec0848285611e77565b509392505050565b600082601f830112611edd57611edc611dc1565b5b8135611eed848260208601611e86565b91505092915050565b600060208284031215611f0c57611f0b611aa2565b5b600082013567ffffffffffffffff811115611f2a57611f29611aa7565b5b611f3684828501611ec8565b91505092915050565b600060208284031215611f5557611f54611aa2565b5b6000611f6384828501611cef565b91505092915050565b611f7581611b31565b8114611f8057600080fd5b50565b600081359050611f9281611f6c565b92915050565b60008060408385031215611faf57611fae611aa2565b5b6000611fbd85828601611cef565b9250506020611fce85828601611f83565b9150509250929050565b600067ffffffffffffffff821115611ff357611ff2611dcb565b5b611ffc82611bad565b9050602081019050919050565b600061201c61201784611fd8565b611e2b565b90508281526020810184848401111561203857612037611dc6565b5b612043848285611e77565b509392505050565b600082601f8301126120605761205f611dc1565b5b8135612070848260208601612009565b91505092915050565b6000806000806080858703121561209357612092611aa2565b5b60006120a187828801611cef565b94505060206120b287828801611cef565b93505060406120c387828801611c3a565b925050606085013567ffffffffffffffff8111156120e4576120e3611aa7565b5b6120f08782880161204b565b91505092959194509250565b6000806040838503121561211357612112611aa2565b5b600061212185828601611cef565b925050602083013567ffffffffffffffff81111561214257612141611aa7565b5b61214e85828601611ec8565b9150509250929050565b6000806040838503121561216f5761216e611aa2565b5b600061217d85828601611cef565b925050602061218e85828601611cef565b9150509250929050565b7f4e487b7100000000000000000000000000000000000000000000000000000000600052602260045260246000fd5b600060028204905060018216806121df57607f821691505b6020821081036121f2576121f1612198565b5b50919050565b7f4e6f6e6578697374656e7420746f6b656e000000000000000000000000000000600082015250565b600061222e601183611b72565b9150612239826121f8565b602082019050919050565b6000602082019050818103600083015261225d81612221565b9050919050565b7f417070726f766520746f2063757272656e74206f776e65720000000000000000600082015250565b600061229a601883611b72565b91506122a582612264565b602082019050919050565b600060208201905081810360008301526122c98161228d565b9050919050565b7f4e6f74206f776e6572206e6f7220617070726f76656420666f7220616c6c0000600082015250565b6000612306601e83611b72565b9150612311826122d0565b602082019050919050565b60006020820190508181036000830152612335816122f9565b9050919050565b7f4e6f74206f776e6572206e6f7220617070726f76656400000000000000000000600082015250565b6000612372601683611b72565b915061237d8261233c565b602082019050919050565b600060208201905081810360008301526123a181612365565b9050919050565b7f46726f6d206973206e6f74206f776e6572000000000000000000000000000000600082015250565b60006123de601183611b72565b91506123e9826123a8565b602082019050919050565b6000602082019050818103600083015261240d816123d1565b9050919050565b7f5472616e7366657220746f207a65726f20616464726573730000000000000000600082015250565b600061244a601883611b72565b915061245582612414565b602082019050919050565b600060208201905081810360008301526124798161243d565b9050919050565b7f4e487b7100000000000000000000000000000000000000000000000000000000600052601160045260246000fd5b60006124ba82611c19565b91506124c583611c19565b92508282039050818111156124dd576124dc612480565b5b92915050565b60006124ee82611c19565b91506124f983611c19565b925082820190508082111561251157612510612480565b5b92915050565b7f4e6f7420636f6e7472616374206f776e65720000000000000000000000000000600082015250565b600061254d601283611b72565b915061255882612517565b602082019050919050565b6000602082019050818103600083015261257c81612540565b9050919050565b60008190508160005260206000209050919050565b60006020601f8301049050919050565b600082821b905092915050565b6000600883026125e57fffffffffffffffffffffffffffffffffffffffffffffffffffffffffffffffff826125a8565b6125ef86836125a8565b95508019841693508086168417925050509392505050565b6000819050919050565b600061262c61262761262284611c19565b612607565b611c19565b9050919050565b6000819050919050565b61264683612611565b61265a61265282612633565b8484546125b5565b825550505050565b600090565b61266f612662565b61267a81848461263d565b505050565b5b8181101561269e57612693600082612667565b600181019050612680565b5050565b601f8211156126e3576126b481612583565b6126bd84612598565b810160208510156126cc578190505b6126e06126d885612598565b83018261267f565b50505b505050565b600082821c905092915050565b6000612706600019846008026126e8565b1980831691505092915050565b600061271f83836126f5565b9150826002028217905092915050565b61273882611b67565b67ffffffffffffffff81111561275157612750611dcb565b5b61275b82546121c7565b6127668282856126a2565b600060209050601f8311600181146127995760008415612787578287015190505b6127918582612713565b8655506127f9565b601f1984166127a786612583565b60005b828110156127cf578489015182556001820191506020850194506020810190506127aa565b868310156127ec57848901516127e8601f8916826126f5565b8355505b6001600288020188555050505b505050505050565b7f5a65726f20616464726573730000000000000000000000000000000000000000600082015250565b6000612837600c83611b72565b915061284282612801565b602082019050919050565b600060208201905081810360008301526128668161282a565b9050919050565b7f417070726f766520746f2063616c6c6572000000000000000000000000000000600082015250565b60006128a3601183611b72565b91506128ae8261286d565b602082019050919050565b600060208201905081810360008301526128d281612896565b9050919050565b7f52656365697665722072656a6563746564204e46540000000000000000000000600082015250565b600061290f601583611b72565b915061291a826128d9565b602082019050919050565b6000602082019050818103600083015261293e81612902565b9050919050565b600081905092915050565b6000815461295d816121c7565b6129678186612945565b945060018216600081146129825760018114612997576129ca565b60ff19831686528115158202860193506129ca565b6129a085612583565b60005b838110156129c2578154818901526001820191506020810190506129a3565b838801955050505b50505092915050565b60006129de82611b67565b6129e88185612945565b93506129f8818560208601611b83565b80840191505092915050565b6000612a108285612950565b9150612a1c82846129d3565b91508190509392505050565b7f4d696e7420746f207a65726f2061646472657373000000000000000000000000600082015250565b6000612a5e601483611b72565b9150612a6982612a28565b602082019050919050565b60006020820190508181036000830152612a8d81612a51565b9050919050565b6000612a9f82611c19565b91507fffffffffffffffffffffffffffffffffffffffffffffffffffffffffffffffff8203612ad157612ad0612480565b5b600182019050919050565b7f416c7265616479206d696e746564000000000000000000000000000000000000600082015250565b6000612b12600e83611b72565b9150612b1d82612adc565b602082019050919050565b60006020820190508181036000830152612b4181612b05565b9050919050565b600081519050919050565b600082825260208201905092915050565b6000612b6f82612b48565b612b798185612b53565b9350612b89818560208601611b83565b612b9281611bad565b840191505092915050565b6000608082019050612bb26000830187611cae565b612bbf6020830186611cae565b612bcc6040830185611d44565b8181036060830152612bde8184612b64565b905095945050505050565b600081519050612bf881611ad8565b92915050565b600060208284031215612c1457612c13611aa2565b5b6000612c2284828501612be9565b91505092915050565b7f4e487b7100000000000000000000000000000000000000000000000000000000600052601260045260246000fd5b6000612c6582611c19565b9150612c7083611c19565b925082612c8057612c7f612c2b565b5b828204905092915050565b6000612c9682611c19565b9150612ca183611c19565b925082612cb157612cb0612c2b565b5b828206905092915050565b7f4e487b7100000000000000000000000000000000000000000000000000000000600052603260045260246000fdfea264697066735822122021cdee390ddd48cbc09f05e8243a6461fbd42f4f10fb52b4dc0ea01cdf59d4b264736f6c634300081c0033",
  "linkReferences": {},
  "deployedLinkReferences": {}
}